{
  "_format": "hh-sol-artifact-1",
  "contractName": "Distributor",
  "sourceName": "contracts/Distributor.sol",
  "abi": [
    {
      "inputs": [],
      "stateMutability": "nonpayable",
      "type": "constructor"
    },
    {
      "anonymous": false,
      "inputs": [],
      "name": "contractChange",
      "type": "event"
    },
    {
      "anonymous": false,
      "inputs": [
        {
          "indexed": true,
          "internalType": "address",
          "name": "_account",
          "type": "address"
        },
        {
          "indexed": false,
          "internalType": "uint256",
          "name": "amount",
          "type": "uint256"
        }
      ],
      "name": "userChange",
      "type": "event"
    },
    {
      "inputs": [
        {
          "internalType": "uint256",
          "name": "amount",
          "type": "uint256"
        }
      ],
      "name": "changeMaxContribution",
      "outputs": [],
      "stateMutability": "nonpayable",
      "type": "function"
    },
    {
      "inputs": [
        {
          "internalType": "uint256",
          "name": "amount",
          "type": "uint256"
        }
      ],
      "name": "changeMinContribution",
      "outputs": [],
      "stateMutability": "nonpayable",
      "type": "function"
    },
    {
      "inputs": [],
      "name": "contribute",
      "outputs": [],
      "stateMutability": "payable",
      "type": "function"
    },
    {
      "inputs": [
        {
          "internalType": "address",
          "name": "",
          "type": "address"
        }
      ],
      "name": "contributions",
      "outputs": [
        {
          "internalType": "uint256",
          "name": "",
          "type": "uint256"
        }
      ],
      "stateMutability": "view",
      "type": "function"
    },
    {
      "inputs": [],
      "name": "contributorsAmount",
      "outputs": [
        {
          "internalType": "uint256",
          "name": "",
          "type": "uint256"
        }
      ],
      "stateMutability": "view",
      "type": "function"
    },
    {
      "inputs": [],
      "name": "locked",
      "outputs": [
        {
          "internalType": "bool",
          "name": "",
          "type": "bool"
        }
      ],
      "stateMutability": "view",
      "type": "function"
    },
    {
      "inputs": [],
      "name": "maxContribution",
      "outputs": [
        {
          "internalType": "uint256",
          "name": "",
          "type": "uint256"
        }
      ],
      "stateMutability": "view",
      "type": "function"
    },
    {
      "inputs": [],
      "name": "minContribution",
      "outputs": [
        {
          "internalType": "uint256",
          "name": "",
          "type": "uint256"
        }
      ],
      "stateMutability": "view",
      "type": "function"
    },
    {
      "inputs": [],
      "name": "owner",
      "outputs": [
        {
          "internalType": "address",
          "name": "",
          "type": "address"
        }
      ],
      "stateMutability": "view",
      "type": "function"
    },
    {
      "inputs": [],
      "name": "retire",
      "outputs": [],
      "stateMutability": "nonpayable",
      "type": "function"
    },
    {
      "inputs": [
        {
          "internalType": "address",
          "name": "newOwner",
          "type": "address"
        }
      ],
      "name": "transferOwnership",
      "outputs": [],
      "stateMutability": "nonpayable",
      "type": "function"
    },
    {
      "inputs": [],
      "name": "unlockWithdrawals",
      "outputs": [],
      "stateMutability": "nonpayable",
      "type": "function"
    },
    {
      "inputs": [],
      "name": "withdraw",
      "outputs": [],
      "stateMutability": "nonpayable",
      "type": "function"
    }
  ],
  "bytecode": "0x6080604052678ac7230489e8000060015567016345785d8a000060025534801561002857600080fd5b50336000806101000a81548173ffffffffffffffffffffffffffffffffffffffff021916908373ffffffffffffffffffffffffffffffffffffffff1602179055506001600060146101000a81548160ff0219169083151502179055506114f1806100936000396000f3fe6080604052600436106100c25760003560e01c8063a4874d771161007f578063cf30901211610059578063cf30901214610230578063d7bb99ba1461025b578063f2fde38b14610265578063f317124c1461028e576100c2565b8063a4874d77146101c5578063aaffadf3146101dc578063b3b81d3814610207576100c2565b80633ccfd60b146100c757806342e94c90146100de57806349b70ddd1461011b57806368894a16146101465780638d3d65761461016f5780638da5cb5b1461019a575b600080fd5b3480156100d357600080fd5b506100dc6102a5565b005b3480156100ea57600080fd5b5061010560048036038101906101009190610e0c565b610516565b6040516101129190611111565b60405180910390f35b34801561012757600080fd5b5061013061052e565b60405161013d9190611111565b60405180910390f35b34801561015257600080fd5b5061016d60048036038101906101689190610e35565b610534565b005b34801561017b57600080fd5b506101846105f8565b6040516101919190611111565b60405180910390f35b3480156101a657600080fd5b506101af6105fe565b6040516101bc9190610fdb565b60405180910390f35b3480156101d157600080fd5b506101da610622565b005b3480156101e857600080fd5b506101f161089b565b6040516101fe9190611111565b60405180910390f35b34801561021357600080fd5b5061022e60048036038101906102299190610e35565b6108a1565b005b34801561023c57600080fd5b50610245610965565b6040516102529190610ff6565b60405180910390f35b610263610978565b005b34801561027157600080fd5b5061028c60048036038101906102879190610e0c565b610b9f565b005b34801561029a57600080fd5b506102a3610d0c565b005b60001515600060149054906101000a900460ff161515146102fb576040517f08c379a00000000000000000000000000000000000000000000000000000000081526004016102f290611051565b60405180910390fd5b6000600360003373ffffffffffffffffffffffffffffffffffffffff1673ffffffffffffffffffffffffffffffffffffffff1681526020019081526020016000205414610514576000600360003373ffffffffffffffffffffffffffffffffffffffff1673ffffffffffffffffffffffffffffffffffffffff1681526020019081526020016000208190555060006004549050600460008154809291906103a190611271565b9190505550600060045414156103cd576001600060146101000a81548160ff0219169083151502179055505b60003373ffffffffffffffffffffffffffffffffffffffff1682476103f2919061119e565b6040516103fe90610fc6565b60006040518083038185875af1925050503d806000811461043b576040519150601f19603f3d011682016040523d82523d6000602084013e610440565b606091505b505090503373ffffffffffffffffffffffffffffffffffffffff167faeaea12b2aabd7a7a470b0db73db6a8bd5f7ac150823133743c79a74f97d1e8e600360003373ffffffffffffffffffffffffffffffffffffffff1673ffffffffffffffffffffffffffffffffffffffff168152602001908152602001600020546040516104c99190611111565b60405180910390a280610511576040517f08c379a000000000000000000000000000000000000000000000000000000000815260040161050890611031565b60405180910390fd5b50505b565b60036020528060005260406000206000915090505481565b60045481565b60008054906101000a900473ffffffffffffffffffffffffffffffffffffffff1673ffffffffffffffffffffffffffffffffffffffff163373ffffffffffffffffffffffffffffffffffffffff16146105c2576040517f08c379a00000000000000000000000000000000000000000000000000000000081526004016105b9906110d1565b60405180910390fd5b806001819055507fbd8f548c4d0795191a1198d1db58d0b71cb868e06926cdc1c71170db9b08805460405160405180910390a150565b60015481565b60008054906101000a900473ffffffffffffffffffffffffffffffffffffffff1681565b6000600360003373ffffffffffffffffffffffffffffffffffffffff1673ffffffffffffffffffffffffffffffffffffffff1681526020019081526020016000205414156106a5576040517f08c379a000000000000000000000000000000000000000000000000000000000815260040161069c90611091565b60405180910390fd5b6000600360003373ffffffffffffffffffffffffffffffffffffffff1673ffffffffffffffffffffffffffffffffffffffff1681526020019081526020016000205490506000600360003373ffffffffffffffffffffffffffffffffffffffff1673ffffffffffffffffffffffffffffffffffffffff168152602001908152602001600020819055506004600081548092919061074190611271565b919050555060003373ffffffffffffffffffffffffffffffffffffffff16600a60098461076e91906111cf565b610778919061119e565b60405161078490610fc6565b60006040518083038185875af1925050503d80600081146107c1576040519150601f19603f3d011682016040523d82523d6000602084013e6107c6565b606091505b505090503373ffffffffffffffffffffffffffffffffffffffff167faeaea12b2aabd7a7a470b0db73db6a8bd5f7ac150823133743c79a74f97d1e8e600360003373ffffffffffffffffffffffffffffffffffffffff1673ffffffffffffffffffffffffffffffffffffffff1681526020019081526020016000205460405161084f9190611111565b60405180910390a280610897576040517f08c379a000000000000000000000000000000000000000000000000000000000815260040161088e906110b1565b60405180910390fd5b5050565b60025481565b60008054906101000a900473ffffffffffffffffffffffffffffffffffffffff1673ffffffffffffffffffffffffffffffffffffffff163373ffffffffffffffffffffffffffffffffffffffff161461092f576040517f08c379a0000000000000000000000000000000000000000000000000000000008152600401610926906110d1565b60405180910390fd5b806002819055507fbd8f548c4d0795191a1198d1db58d0b71cb868e06926cdc1c71170db9b08805460405160405180910390a150565b600060149054906101000a900460ff1681565b600254341015801561098c57506001543411155b6109cb576040517f08c379a00000000000000000000000000000000000000000000000000000000081526004016109c2906110f1565b60405180910390fd5b60015434600360003373ffffffffffffffffffffffffffffffffffffffff1673ffffffffffffffffffffffffffffffffffffffff16815260200190815260200160002054610a199190611148565b10610a59576040517f08c379a0000000000000000000000000000000000000000000000000000000008152600401610a5090611011565b60405180910390fd5b6000600360003373ffffffffffffffffffffffffffffffffffffffff1673ffffffffffffffffffffffffffffffffffffffff168152602001908152602001600020541415610aba5760046000815480929190610ab49061129b565b91905055505b34600360003373ffffffffffffffffffffffffffffffffffffffff1673ffffffffffffffffffffffffffffffffffffffff1681526020019081526020016000206000828254610b099190611148565b925050819055503373ffffffffffffffffffffffffffffffffffffffff167faeaea12b2aabd7a7a470b0db73db6a8bd5f7ac150823133743c79a74f97d1e8e600360003373ffffffffffffffffffffffffffffffffffffffff1673ffffffffffffffffffffffffffffffffffffffff16815260200190815260200160002054604051610b959190611111565b60405180910390a2565b60008054906101000a900473ffffffffffffffffffffffffffffffffffffffff1673ffffffffffffffffffffffffffffffffffffffff163373ffffffffffffffffffffffffffffffffffffffff1614610c2d576040517f08c379a0000000000000000000000000000000000000000000000000000000008152600401610c24906110d1565b60405180910390fd5b600073ffffffffffffffffffffffffffffffffffffffff168173ffffffffffffffffffffffffffffffffffffffff161415610c9d576040517f08c379a0000000000000000000000000000000000000000000000000000000008152600401610c9490611071565b60405180910390fd5b806000806101000a81548173ffffffffffffffffffffffffffffffffffffffff021916908373ffffffffffffffffffffffffffffffffffffffff1602179055507fbd8f548c4d0795191a1198d1db58d0b71cb868e06926cdc1c71170db9b08805460405160405180910390a150565b60008054906101000a900473ffffffffffffffffffffffffffffffffffffffff1673ffffffffffffffffffffffffffffffffffffffff163373ffffffffffffffffffffffffffffffffffffffff1614610d9a576040517f08c379a0000000000000000000000000000000000000000000000000000000008152600401610d91906110d1565b60405180910390fd5b60008060146101000a81548160ff0219169083151502179055507fbd8f548c4d0795191a1198d1db58d0b71cb868e06926cdc1c71170db9b08805460405160405180910390a1565b600081359050610df18161148d565b92915050565b600081359050610e06816114a4565b92915050565b600060208284031215610e1e57600080fd5b6000610e2c84828501610de2565b91505092915050565b600060208284031215610e4757600080fd5b6000610e5584828501610df7565b91505092915050565b610e6781611229565b82525050565b610e768161123b565b82525050565b6000610e89601583611137565b9150610e9482611342565b602082019050919050565b6000610eac601283611137565b9150610eb78261136b565b602082019050919050565b6000610ecf601683611137565b9150610eda82611394565b602082019050919050565b6000610ef2601483611137565b9150610efd826113bd565b602082019050919050565b6000610f15601283611137565b9150610f20826113e6565b602082019050919050565b6000610f38601083611137565b9150610f438261140f565b602082019050919050565b6000610f5b600d83611137565b9150610f6682611438565b602082019050919050565b6000610f7e601483611137565b9150610f8982611461565b602082019050919050565b6000610fa160008361112c565b9150610fac8261148a565b600082019050919050565b610fc081611267565b82525050565b6000610fd182610f94565b9150819050919050565b6000602082019050610ff06000830184610e5e565b92915050565b600060208201905061100b6000830184610e6d565b92915050565b6000602082019050818103600083015261102a81610e7c565b9050919050565b6000602082019050818103600083015261104a81610e9f565b9050919050565b6000602082019050818103600083015261106a81610ec2565b9050919050565b6000602082019050818103600083015261108a81610ee5565b9050919050565b600060208201905081810360008301526110aa81610f08565b9050919050565b600060208201905081810360008301526110ca81610f2b565b9050919050565b600060208201905081810360008301526110ea81610f4e565b9050919050565b6000602082019050818103600083015261110a81610f71565b9050919050565b60006020820190506111266000830184610fb7565b92915050565b600081905092915050565b600082825260208201905092915050565b600061115382611267565b915061115e83611267565b9250827fffffffffffffffffffffffffffffffffffffffffffffffffffffffffffffffff03821115611193576111926112e4565b5b828201905092915050565b60006111a982611267565b91506111b483611267565b9250826111c4576111c3611313565b5b828204905092915050565b60006111da82611267565b91506111e583611267565b9250817fffffffffffffffffffffffffffffffffffffffffffffffffffffffffffffffff048311821515161561121e5761121d6112e4565b5b828202905092915050565b600061123482611247565b9050919050565b60008115159050919050565b600073ffffffffffffffffffffffffffffffffffffffff82169050919050565b6000819050919050565b600061127c82611267565b915060008214156112905761128f6112e4565b5b600182039050919050565b60006112a682611267565b91507fffffffffffffffffffffffffffffffffffffffffffffffffffffffffffffffff8214156112d9576112d86112e4565b5b600182019050919050565b7f4e487b7100000000000000000000000000000000000000000000000000000000600052601160045260246000fd5b7f4e487b7100000000000000000000000000000000000000000000000000000000600052601260045260246000fd5b7f434f4e545249425554494f4e5f544f4f5f484947480000000000000000000000600082015250565b7f434f554c445f4e4f545f57495448445241570000000000000000000000000000600082015250565b7f5749544844524157414c535f4152455f4c4f434b454400000000000000000000600082015250565b7f414444524553535f43414e545f42455f5a45524f000000000000000000000000600082015250565b7f4e4f5f415641494c41424c455f46554e44530000000000000000000000000000600082015250565b7f434f554c44204e4f542052455449524500000000000000000000000000000000600082015250565b7f4d5553545f42455f4f574e455200000000000000000000000000000000000000600082015250565b7f434f4e545249425554494f4e5f544f4f5f4c4f57000000000000000000000000600082015250565b50565b61149681611229565b81146114a157600080fd5b50565b6114ad81611267565b81146114b857600080fd5b5056fea26469706673582212206f70babd28b7aec53d71f5bd21e909d3ac84ead7e90c0ab227756f491d6e0faa64736f6c63430008040033",
  "linkReferences": {},
  "deployedLinkReferences": {}
}